:100000000C945F000C9487000C9487000C9487007C
:100010000C9487000C9487000C9487000C94870044
:100020000C9487000C9487000C9487000C94870034
:100030000C9487000C9487000C9487000C94870024
:100040000C9430050C9487000C94E7020C942A035E
:100050000C9487000C9487000C9487000C94870004
:100060000C9487000C948700000000070002010038
:100070000003040600000000000000000102040864
:100080001020408001020408102001020408102002
:10009000040404040404040402020202020203032E
:1000A0000303030300000000250028002B000000CC
:1000B0000000240027002A00E400E903EA001124DC
:1000C0001FBECFEFD8E0DEBFCDBF11E0A0E0B1E0B2
:1000D000EAE2F0E102C005900D92A632B107D9F72D
:1000E00021E0A6E2B1E001C01D92A43EB207E1F713
:1000F00010E0CEE5D0E004C02197FE010E94E907A0
:10010000CC35D107C9F70E94CC010C9408080C9497
:10011000000040E855E260E070E08DE291E00E946E
:10012000650361E0809100010C941701CF93DF9388
:10013000CDB7DEB727970FB6F894DEBF0FBECDBFA1
:100140006DE271E0CE0101960E94B201BE016F5FC7
:100150007F4F86E291E00E94A804CE0101960E94A2
:10016000240468E071E086E291E00E9400058823A3
:1001700041F061E0809100010E9453016BE071E069
:100180000FC06EE071E086E291E00E9400058823D6
:1001900061F060E0809100010E94530162E171E032
:1001A0008DE291E00E944B0206C066E271E08DE2B2
:1001B00091E00E94160227960FB6F894DEBF0FBE9C
:1001C000CDBFDF91CF91089564E171E086E291E0C7
:1001D0000C94920486E291E00C942404833081F024
:1001E00028F4813099F08230A1F008958630A9F08A
:1001F0008730B9F08430D1F4809180008F7D03C0C6
:10020000809180008F7780938000089584B58F77E8
:1002100002C084B58F7D84BD08958091B0008F7732
:1002200003C08091B0008F7D8093B0000895CF937C
:10023000DF9390E0FC01E458FF4F2491FC01E0576C
:10024000FF4F8491882361F190E0880F991FFC0192
:10025000E255FF4FC591D491FC01EC55FF4FA5919C
:10026000B491611109C09FB7F894888120958223C9
:100270008883EC912E230BC0623061F49FB7F89411
:100280008881322F309583238883EC912E2B2C93F9
:100290009FBF06C08FB7F894E8812E2B28838FBFAD
:1002A000DF91CF9108951F93CF93DF93282F30E0F4
:1002B000F901E859FF4F8491F901E458FF4FD491B7
:1002C000F901E057FF4FC491CC23C1F0162F8111E3
:1002D0000E94EE00EC2FF0E0EE0FFF1FEC55FF4FF9
:1002E000A591B4919FB7F894111104C08C91D09549
:1002F000D82302C0EC91DE2BDC939FBFDF91CF911E
:100300001F9108950F931F93CF93DF93EC010E94E9
:100310007A05688779878A879B87E881F9810680D3
:10032000F781E02DCE01099597FF17C00E947A054D
:10033000088519852A853B85DC01CB01801B910B43
:10034000A20BB30B0C811D812E813F818017910779
:10035000A207B30710F38FEF9FEFDF91CF911F91AB
:100360000F9108950F931F93CF93DF93EC018B01AF
:1003700064E171E00E949204C8010E94820197FD2D
:1003800005C0682FCE010E94ED04F6CFCE01DF91AB
:10039000CF911F910F9108950E9486050E948900B8
:1003A000C1E2D3E00E9496002097E1F30E9421036E
:1003B000F9CFCF92DF92EF92FF920F931F93CF93DB
:1003C000DF936C01EB017B01E40EF51E00E010E011
:1003D000CE15DF0561F06991D601ED91FC91019098
:1003E000F081E02DC6010995080F191FF1CFC80152
:1003F000DF91CF911F910F91FF90EF90DF90CF9001
:1004000008956115710579F0FB0101900020E9F76D
:100410003197AF01461B570BDC01ED91FC91028037
:10042000F381E02D099480E090E00895AF92BF92AF
:10043000CF92DF92EF92FF920F931F93CF93DF93B0
:100440007C016B01C0E0D0E000E010E0D601149622
:100450008D919C911597C817D90788F4D701ED9114
:10046000FC91A080B180BE01C6010E941F05682FCB
:10047000C701F5010995080F191F2196E7CFC8019B
:10048000DF91CF911F910F91FF90EF90DF90CF9070
:10049000BF90AF9008950C940102FC01248535852E
:1004A000F901E05CFF4F808191813296208131819A
:1004B000821B930B8F7399270895DC011C96ED9195
:1004C000FC911D97DF01A05CBF4F2D913C911197CE
:1004D00012968D919C9111972817390739F08D91BB
:1004E0009C91E80FF91F808190E008958FEF9FEFB6
:1004F0000895FC01A485B585FD01E05CFF4F2081D6
:1005000031813296808191812817390779F0808175
:100510009181A80FB91F8C91208131812F5F3F4FAE
:100520002F7333273183208390E008958FEF9FEF5F
:100530000895FC0181A1882329F0A489B5898C91B3
:1005400086FFFBCF11A208950F931F93CF93DF93E4
:10055000FC01A685B7858D01005C1F4FE8018881ED
:10056000998101968F739927AD014E5B5F4FEA0128
:100570002881398128173907D1F3E8012881398189
:10058000A20FB31F6C93A685B785A05CBF4F1196D1
:100590009C938E93A689B7892C9181E090E0078C7B
:1005A00002C0880F991F0A94E2F7822B8C9381E096
:1005B00081A30488F589E02D80818064808381E0B7
:1005C00090E0DF91CF911F910F91089508951F92B0
:1005D0000F920FB60F9211242F934F935F938F9327
:1005E0009F93EF93FF938091C00082FD1CC02091E8
:1005F000C6008091D3019091D4014091D5015091D2
:10060000D60101968F7399274817590771F0E09129
:10061000D301F091D401ED56FE4F20839093D40185
:100620008093D30102C08091C600FF91EF919F910A
:100630008F915F914F912F910F900FBE0F901F9050
:1006400018958DE291E00E944D02892B11F00C94D7
:10065000E60208951F920F920FB60F9211242F9366
:100660003F938F939F93EF93FF9320918F0130914E
:10067000900180919101909192012817390731F4EE
:100680008091C1008F7D8093C10014C0E0919101E1
:10069000F0919201E15BFE4F208180919101909158
:1006A000920101968F739927909392018093910103
:1006B0002093C600FF91EF919F918F913F912F91D1
:1006C0000F900FBE0F901F901895CF92DF92EF9270
:1006D000FF92CF93DF93EC016A017B014115514EEC
:1006E0006105710509F1EC89FD8981E090E008A0C0
:1006F00002C0880F991F0A94E2F7808360E079E0D6
:100700008DE390E0A70196010E94C707DA01C901B5
:100710000197A109B109B695A795979587959C0171
:10072000211580E13807A8F0EC89FD89108260E886
:1007300074E88EE190E0A70196010E94C707DA01F4
:10074000C9010197A109B109B695A7959795879514
:100750009C01E889F9893083EA89FB89208319A201
:10076000EE89FF89408181E090E09C010C8C02C001
:10077000220F331F0A94E2F7242B2083EE89FF898E
:1007800040819C010D8C02C0220F331F0A94E2F7B6
:10079000242B2083EE89FF8940819C010E8C02C0AE
:1007A000220F331F0A94E2F7242B2083EE89FF895E
:1007B00020810F8C02C0880F991F0A94E2F7809560
:1007C00082238083DF91CF91FF90EF90DF90CF90D5
:1007D0000895EDE2F1E01382128288EE93E0A0E04A
:1007E000B0E084839583A683B78389E191E0918308
:1007F000808383E991E0958784878FE491E09787F0
:10080000868785EC90E0918B808B84EC90E0938BD5
:10081000828B80EC90E0958B848B81EC90E0978BC1
:10082000868B82EC90E0918F808F86EC90E0938FA6
:10083000828F84E0848F83E0858F87E0868F85E0D8
:10084000878F81E080A30895FC01808191810C94C1
:100850003E07CF93DF93EC0188819981009711F0D7
:100860000E943E07198218821D821C821B821A82F6
:10087000DF91CF9108950F931F93CF93DF93EC01F6
:100880008B016F5F7F4F888199810E94C10500971E
:1008900031F0998388831B830A8381E001C080E063
:1008A000DF91CF911F910F910895CF93DF93EC01CA
:1008B00088819981892B29F08A819B8186179707E6
:1008C00060F4CE010E943B04882341F08C819D811D
:1008D000892B19F4E881F981108281E0DF91CF91B1
:1008E0000895EF92FF920F931F93CF93DF93EC0144
:1008F0007B018A01BA010E945504811104C0CE0116
:100900000E94290407C01D830C83B7018881998147
:100910000E940108CE01DF91CF911F910F91FF90AE
:10092000EF900895FC0111821082138212821582C9
:10093000148216826115710551F0FB0101900020AF
:10094000E9F73197AF01461B570B0C9471040895DA
:10095000CF93DF93EC01FB018617970761F060816D
:1009600071816115710529F0448155810E947104DE
:1009700002C00E942904CE01DF91CF910895EF9229
:10098000FF920F931F93CF93DF936115710511F4BD
:1009900080E01CC041155105C1F07B01EC018C8148
:1009A0009D818A01080F191FB801CE010E945504CC
:1009B000882371F3288139818C819D81B701820F51
:1009C000931F0E9401081D830C8381E0DF91CF916A
:1009D0001F910F91FF90EF900895CF93DF9300D078
:1009E000CDB7DEB769831A8241E050E0BE016F5F88
:1009F0007F4F0E94BF040F900F90DF91CF91089519
:100A0000FC0124813581232B31F421E0611571052E
:100A1000A1F0FB0108C0FC01808191816115710585
:100A200031F421E0FC018081882339F005C00E9467
:100A3000F80721E0892B09F020E0822F0895FC01BE
:100A4000248135816217730748F480819181009772
:100A500029F0FC01E60FF71F8081089580E00895DA
:100A60001F920F920FB60F9211242F933F938F93E3
:100A70009F93AF93BF938091D8019091D901A0919A
:100A8000DA01B091DB013091D70123E0230F2D373C
:100A900020F40196A11DB11D05C026E8230F029682
:100AA000A11DB11D2093D7018093D8019093D90146
:100AB000A093DA01B093DB018091DC019091DD011C
:100AC000A091DE01B091DF010196A11DB11D8093BF
:100AD000DC019093DD01A093DE01B093DF01BF91B3
:100AE000AF919F918F913F912F910F900FBE0F90DB
:100AF0001F9018952FB7F8946091D8017091D90183
:100B00008091DA019091DB012FBF0895789484B52C
:100B1000826084BD84B5816084BD85B5826085BDF9
:100B200085B5816085BDEEE6F0E0808181608083DF
:100B3000E1E8F0E0108280818260808380818160C2
:100B40008083E0E8F0E0808181608083E1EBF0E089
:100B5000808184608083E0EBF0E08081816080832D
:100B6000EAE7F0E080818460808380818260808316
:100B70008081816080838081806880831092C10041
:100B800008956F927F928F929F92AF92BF92CF9271
:100B9000DF92EF92FF920F931F93CF93DF93009713
:100BA00089F4CB01DF91CF911F910F91FF90EF90CE
:100BB000DF90CF90BF90AF909F908F907F906F907D
:100BC0000C94A606FC01E60FF71F9C012250310988
:100BD000E217F30708F4A9C0EC01D9010D911C91AB
:100BE000119706171707B0F00530110508F49BC0E0
:100BF000C80104978617970708F495C00250110999
:100C0000061B170B019311936D937C93CF010E94E8
:100C10003E0789C05B01A01AB10A4C01800E911EEB
:100C2000A091E201B091E301612C712CE12CF12C37
:100C3000109709F446C08D919C911197A815B9059C
:100C4000B1F56C0142E0C40ED11CCA14DB0478F18A
:100C50004C018A189B08640142E0C40ED11C129614
:100C6000BC9012971396AC91B5E0CB16D10440F02E
:100C7000B282A38391828082D9016D937C9309C053
:100C80000E5F1F4F800F911FF90191838083EB2D21
:100C9000FA2FE114F10431F0D7011396FC93EE938F
:100CA000129741C0F093E301E093E2013CC0681663
:100CB000790608F43C017D0112960D90BC91A02D9F
:100CC000B7CF8091E0019091E10188169906E1F497
:100CD00066167706C8F4809102019091030100978F
:100CE00041F48DB79EB74091060150910701841BD6
:100CF000950BE817F907C8F4F093E101E093E001E0
:100D0000F901718360830FC0CB010E94A6067C01AC
:100D1000009759F0A801BE010E94EF07CE010E9482
:100D20003E07C70104C0CE0102C080E090E0DF9121
:100D3000CF911F910F91FF90EF90DF90CF90BF90D8
:100D4000AF909F908F907F906F9008950F931F9317
:100D5000CF93DF938230910510F482E090E0E09130
:100D6000E201F091E30120E030E0A0E0B0E0309754
:100D700019F1408151810281138148175907C8F048
:100D80008417950769F4109731F012960C93129717
:100D900013961C9327C00093E2011093E30122C035
:100DA0002115310519F04217530718F49A01BD01B6
:100DB000EF01DF01F801DBCF21153105F9F0281B28
:100DC000390B2430310580F48A819B8161157105CE
:100DD00021F0FB019383828304C09093E30180930D
:100DE000E201FE01329644C0FE01E20FF31F81933F
:100DF000919322503109398328833AC02091E00130
:100E00003091E101232B41F420910401309105013F
:100E10003093E1012093E001209102013091030120
:100E20002115310541F42DB73EB74091060150918F
:100E30000701241B350BE091E001F091E101E2177D
:100E4000F307A0F42E1B3F0B2817390778F0AC01ED
:100E50004E5F5F4F2417350748F04E0F5F1F5093CA
:100E6000E1014093E0018193919302C0E0E0F0E062
:100E7000CF01DF91CF911F910F910895CF93DF9311
:100E8000009709F481C0FC01329713821282A0916D
:100E9000E201B091E301109781F420813181820F4A
:100EA000931F2091E0013091E1012817390751F596
:100EB000F093E101E093E00167C0ED0120E030E054
:100EC000CE17DF0740F44A815B819E014115510531
:100ED000F1F0EA01F5CFD383C28340815181840FC1
:100EE000951FC817D90759F488819981840F951FD8
:100EF0000296918380838A819B81938382832115CB
:100F0000310529F4F093E301E093E2013DC0E901EA
:100F1000FB83EA8349915991C40FD51FEC17FD0754
:100F200061F480819181840F951F0296E901998374
:100F30008883828193819B838A83E0E0F0E012962C
:100F40008D919C911397009719F0FD01DC01F7CF6B
:100F50008D919C9111979D012E5F3F4F820F931FA2
:100F60002091E0013091E1012817390769F43097A9
:100F700029F41092E3011092E20102C0138212825E
:100F8000B093E101A093E001DF91CF910895A1E238
:100F90001A2EAA1BBB1BFD010DC0AA1FBB1FEE1FF3
:100FA000FF1FA217B307E407F50720F0A21BB30B3E
:100FB000E40BF50B661F771F881F991F1A9469F7BA
:100FC00060957095809590959B01AC01BD01CF0116
:100FD0000895EE0FFF1F0590F491E02D0994FB0199
:100FE000DC0102C001900D9241505040D8F70895A5
:100FF000FB01DC018D91019080190110D9F3990B4F
:101000000895FB01DC0101900D920020E1F70895A5
:1010100010E0CEE5D0E004C0FE010E94E907219671
:0A102000CF35D107C9F7F894FFCFD0
:10102A000D000000E40180006F6E00310A006F6657
:10103A006600300A0000000000A402D9014D0279BE
:06104A00025D02990200A4
:00000001FF
